:100000000C9462000C948A000C948A000C948A0070
:100010000C948A000C948A000C948A000C948A0038
:100020000C948A000C948A000C948A000C948A0028
:100030000C948A000C948A000C948A000C948A0018
:100040000C9485020C948A000C9453020C942D029B
:100050000C948A000C948A000C948A000C948A00F8
:100060000C948A000C948A000000000025002800EF
:100070002B0000000000240027002A0000000000E0
:1000800023002600290004040404040404040202DA
:100090000202020203030303030301020408102007
:1000A0004080010204081020010204081020000012
:1000B0000008000201000003040700000000000027
:1000C0000000190411241FBECFEFD8E0DEBFCDBF62
:1000D00011E0A0E0B1E0EAEEF8E002C005900D9278
:1000E000A033B107D9F721E0A0E3B1E001C01D9230
:1000F000A83DB207E1F710E0C2E6D0E004C02197C6
:10010000FE010E946804C136D107C9F70E94CF02E0
:100110000C9473040C940000CF92DF92EF92FF9244
:100120000F931F93CF93DF936C017A018B01C0E093
:10013000D0E0CE15DF0581F0D8016D918D01D6019B
:10014000ED91FC910190F081E02DC6010995892B7C
:1001500011F02196EECF7E01C701DF91CF911F9163
:100160000F91FF90EF90DF90CF900895089580E079
:1001700090E00895FC01538D448D252F30E0842FAD
:1001800090E0821B930B541710F0CF9608950197BF
:100190000895FC01918D828D981761F0828DDF01A9
:1001A000A80FB11D5D968C91928D9F5F9F73928F6A
:1001B00090E008958FEF9FEF0895FC01918D828D5F
:1001C000981731F0828DE80FF11D858D90E008952C
:1001D0008FEF9FEF0895FC01918D228D892F90E084
:1001E000805C9F4F821B91098F73992708958BE341
:1001F00091E00E94EB0021E0892B09F420E0822F9E
:100200000895FC01848DDF01A80FB11DA35ABF4FD3
:100210002C91848D90E001968F739927848FA68905
:10022000B7892C93A089B1898C91837080648C9359
:10023000938D848D981306C00288F389E02D808108
:100240008F7D80830895EF92FF920F931F93CF933A
:10025000DF93EC0181E0888F9B8D8C8D981305C016
:10026000E889F989808185FD26C0F62E0B8D10E086
:100270000F5F1F4F0F731127E02E8C8DE8120CC0FB
:100280000FB607FCFACFE889F989808185FFF5CFA1
:10029000CE010E940101F1CF8B8DFE01E80FF11D0F
:1002A000E35AFF4FF0829FB7F8940B8FEA89FB89DE
:1002B000808180620AC09FB7F894EE89FF896083CD
:1002C000E889F98980818370806480839FBF81E0A1
:1002D00090E0DF91CF911F910F91FF90EF900895E3
:1002E000CF93DF93EC01888D8823C9F0EA89FB89DD
:1002F000808185FD05C0A889B9898C9186FD0FC0D4
:100300000FB607FCF5CF808185FFF2CFA889B989A8
:100310008C9185FFEDCFCE010E940101E7CFDF91E7
:10032000CF91089580E090E0892B29F00E94F7009A
:1003300081110C9400000895833081F028F48130FD
:1003400099F08230A1F008958730A9F08830B9F093
:100350008430D1F4809180008F7D03C08091800033
:100360008F7780938000089584B58F7702C084B51D
:100370008F7D84BD08958091B0008F7703C08091F8
:10038000B0008F7D8093B00008951F93CF93DF93CB
:10039000282F30E0F901E255FF4F8491F901E6562C
:1003A000FF4FD491F901EA57FF4FC491CC23C1F01C
:1003B000162F81110E949C01EC2FF0E0EE0FFF1F21
:1003C000E859FF4FA591B4919FB7F894111104C05B
:1003D0008C91D095D82302C0EC91DE2BDC939FBF8B
:1003E000DF91CF911F9108953FB7F8948091350127
:1003F00090913601A0913701B091380126B5A89BA4
:1004000005C02F3F19F00196A11DB11D3FBFBA2FA6
:10041000A92F982F8827820F911DA11DB11DBC0106
:10042000CD0142E0660F771F881F991F4A95D1F7CB
:100430000895009769F0FC0101900020E9F73197D9
:10044000AF01481B590BBC018BE391E00C948C006D
:1004500080E090E008950E946E041F920F920FB604
:100460000F9211242F933F934F935F936F937F933A
:100470008F939F93AF93BF93EF93FF938BE391E0A1
:100480000E940101FF91EF91BF91AF919F918F91D8
:100490007F916F915F914F913F912F910F900FBE80
:1004A0000F901F9018951F920F920FB60F92112464
:1004B0002F938F939F93EF93FF93E0914B01F091D4
:1004C0004C018081E0915101F091520182FD12C0F6
:1004D0009081809154018F5F8F7320915501821715
:1004E00051F0E0915401F0E0E55CFE4F958F809370
:1004F000540101C08081FF91EF919F918F912F91C5
:100500000F900FBE0F901F9018951F920F920FB66D
:100510000F9211242F933F938F939F93AF93BF9389
:100520008091310190913201A0913301B091340159
:100530003091300123E0230F2D3720F40196A11DC7
:10054000B11D05C026E8230F0296A11DB11D209301
:1005500030018093310190933201A0933301B09325
:1005600034018091350190913601A0913701B0910D
:1005700038010196A11DB11D80933501909336017C
:10058000A0933701B0933801BF91AF919F918F91A4
:100590003F912F910F900FBE0F901F901895CF9302
:1005A000DF93CDB7DEB7A1970FB6F894DEBF0FBECD
:1005B000CDBF789484B5826084BD84B5816084BDEC
:1005C00085B5826085BD85B5816085BD80916E00F1
:1005D000816080936E001092810080918100826022
:1005E000809381008091810081608093810080915F
:1005F00080008160809380008091B100846080934E
:10060000B1008091B00081608093B00080917A0049
:10061000846080937A0080917A00826080937A006F
:1006200080917A00816080937A0080917A0080685E
:1006300080937A001092C100E0914B01F0914C013F
:1006400082E08083E0914701F09148011082E091BF
:100650004901F0914A018FEC808310925301E0919F
:100660004F01F091500186E08083E0914D01F091BF
:100670004E01808180618083E0914D01F0914E01B7
:10068000808188608083E0914D01F0914E018081EE
:1006900080688083E0914D01F0914E0180818F7DD3
:1006A000808351EA252E50E0352EF10124910DE88A
:1006B00010E0F80184918823C9F090E0880F991F19
:1006C000FC01EE58FF4FA591B491FC01E859FF4F92
:1006D000459154913FB7F8949C91822F809598232F
:1006E0009C93FA019081892380833FBFE7EAF0E081
:1006F0002491E3E9F0E08491882399F090E0880F59
:10070000991FFC01EE58FF4FA591B491FC01E859E7
:10071000FF4F859194918FB7F894EC91E22BEC9375
:100720008FBF2AE0422E512C612C712CE5EBF0E0BA
:100730008491F101F490F801E490EE20A1F0811190
:100740000E949C01EE2DF0E0EE0FFF1FE458FF4FDA
:10075000A591B4918C91F82291E080E009F490E0A9
:10076000292F382F02C020E030E030933A01209347
:100770003901032E000C440B550B19A27E01F1E246
:10078000EF0EF11CCA01B901A30192010E944604B7
:10079000605DF70162937F01211531054105510527
:1007A00089F7CF010E94190282E191E00E941902AB
:1007B0008091390190913A01019769F461E08DE0EF
:1007C0000E94C50185E191E00E94190282E191E059
:1007D0000E94190204C060E08DE00E94C5010E94E1
:1007E000F4014B015C0188EEC82E83E0D82EE12C89
:1007F000F12C0E94F401DC01CB0188199909AA09A6
:10080000BB09883E9340A105B10598F3F1E0CF1AEA
:10081000D108E108F10828EE820E23E0921EA11C07
:10082000B11CC114D104E104F10419F70E94920132
:100830007DCFEBE3F1E01382128288EE93E0A0E03B
:10084000B0E084839583A683B78384E091E09183AD
:10085000808385EC90E09587848784EC90E097878F
:10086000868780EC90E0918B808B81EC90E0938B7D
:10087000828B82EC90E0958B848B86EC90E0978B5A
:10088000868B118E128E138E148E0895A1E21A2E6D
:10089000AA1BBB1BFD010DC0AA1FBB1FEE1FFF1F24
:1008A000A217B307E407F50720F0A21BB30BE40B74
:1008B000F50B661F771F881F991F1A9469F76095BB
:1008C0007095809590959B01AC01BD01CF01089575
:1008D000EE0FFF1F0590F491E02D099481E090E068
:0A08E000F8940C947304F894FFCF11
:1008EA000000000023018C00BA007001EB00C9006F
:1008FA00DD000D0A00416C657274203A2046697267
:10090A0065206973204275726E696E672121000045
:00000001FF
